S013000064796E616D6F6D657465722E737265636C
S3150800000000000220E5AC0008991F00089D1F0008A3
S31508000010A11F0008A51F0008A91F0008000000006E
S31508000020000000000000000000000000D174000875
S31508000030AD1F00080000000071750008D57500089E
S3150800004035AD000835AD000835AD000835AD0008FA
S3150800005035AD000835AD000835AD000835AD0008EA
S3150800006035AD000835AD000835AD000835AD0008DA
S3150800007035AD000835AD000835AD000835AD0008CA
S31508000080B11F0008C11F0008D11F0008E11F0008A2
S31508000090F11F00080120000835AD000835AD00083D
S315080000A035AD000835AD000835AD000835AD00089A
S315080000B035AD000835AD000835AD000835AD00088A
S315080000C035AD000835AD000835AD000835AD00087A
S315080000D035AD000835AD00081120000835AD00081B
S315080000E035AD000835AD000835AD000835AD00085A
S315080000F035AD000835AD000835AD000835AD00084A
S3150800010035AD000835AD00082120000835AD0008DA
S3150800011035AD000835AD000835AD000835AD000829
S31508000120312000084120000835AD000835AD00082B
S3150800013035AD000835AD000835AD0008512000087A
S31508000140612000087120000835AD000881200008EC
S3150800015035AD00089120000835AD0008A12000083B
S3150800016035AD000835AD000835AD000835AD0008D9
S3150800017035AD000835AD000835AD000800000000B3
S30D0800018035AD000835AD000895
S315080001C010B5054C237833B9044B13B10448AFF383
S315080001D000800123237010BD080B002000000000DA
S315080001E0C8EA0008084B10B51BB108490848AFF320
S315080001F000800848036803B910BD074B002BFBD0E5
S31508000200BDE81040184700BF000000000C0B002096
S31508000210C8EA0008080B002000000000844641EAEE
S31508000220000313F003036DD1403A41D351F8043B60
S3150800023040F8043B51F8043B40F8043B51F8043BB2
S3150800024040F8043B51F8043B40F8043B51F8043BA2
S3150800025040F8043B51F8043B40F8043B51F8043B92
S3150800026040F8043B51F8043B40F8043B51F8043B82
S3150800027040F8043B51F8043B40F8043B51F8043B72
S3150800028040F8043B51F8043B40F8043B51F8043B62
S3150800029040F8043B51F8043B40F8043B51F8043B52
S315080002A040F8043B51F8043B40F8043B403ABDD2C1
S315080002B0303211D351F8043B40F8043B51F8043B63
S315080002C040F8043B51F8043B40F8043B51F8043B22
S315080002D040F8043B103AEDD20C3205D351F8043BF2
S315080002E040F8043B043AF9D2043208D0D2071CBFBE
S315080002F011F8013B00F8013B01D30B8803806046E7
S31508000300704700BF082A13D38B078DD010F003035C
S315080003108AD0C3F10403D21ADB071CBF11F8013BCC
S3150800032000F8013B80D331F8023B20F8023B7BE71B
S31508000330043AD9D3013A11F8013B00F8013BF9D246
S315080003400B7803704B7843708B78837060467047E0
S31508000350000000000000000000000000000000008F
S31508000360000000000000000000000000000000007F
S31508000370000000000000000000000000000000006F
S3150800038090F800F06DE9024520F007016FF0000CC7
S3150800039010F0070491F820F040F049804FF000046F
S315080003A06FF00700D1E9002391F840F000F108004A
S315080003B082FA4CF2A4FA8CF283FA4CF3A2FA8CF382
S315080003C04BBBD1E9022382FA4CF200F10800A4FAE9
S315080003D08CF283FA4CF3A2FA8CF3E3B9D1E904233D
S315080003E082FA4CF200F10800A4FA8CF283FA4CF374
S315080003F0A2FA8CF37BB9D1E9062301F1200182FA2E
S315080004004CF200F10800A4FA8CF283FA4CF3A2FA33
S315080004108CF3002BC6D0002A04BF04301A4612BA41
S31508000420B2FA82F2FDE8024500EBD2007047D1E944
S31508000430002304F00305C4F100004FEAC50514F0D3
S31508000440040F91F840F00CFA05F562EA05021CBFA4
S3150800045063EA050362464FF00004A9E700000000BE
S3150800046001F0FF01102A2BDB10F0070F08D010F857
S31508000470013B013A8B422DD010F0070F42B3F6D15B
S31508000480F0B441EA012141EA014122F007047FF074
S3150800049000070023F0E80256083C85EA010586EACB
S315080004A0010685FA47F5A3FA87F586FA47F6A5FA07
S315080004B087F68EB9EED1F0BC01F0FF0102F0070213
S315080004C032B110F8013B013A83EA010313B1F8D1BE
S315080004D00020704701387047002D06BF354603389F
S315080004E0073815F0010F07D1013015F4807F02BFD8
S315080004F0013015F4C03F0130F0BC0138704700BF29
S3150800050081F0004102E000BF83F0004330B54FEAB6
S3150800051041044FEA430594EA050F08BF90EA020F23
S315080005201FBF54EA000C55EA020C7FEA645C7FEAB6
S31508000530655C00F0E2804FEA5454D4EB5555B8BFD9
S315080005406D420CDD2C4480EA020281EA030382EA4A
S31508000550000083EA010180EA020281EA0303362DDC
S3150800056088BF30BD11F0004F4FEA01314FF4801CAF
S315080005704CEA113102D0404261EB410113F0004FC1
S315080005804FEA03334CEA133302D0524263EB430378
S3150800059094EA050F00F0A780A4F10104D5F1200E16
S315080005A00DDB02FA0EFC22FA05F2801841F1000171
S315080005B003FA0EF2801843FA05F359410EE0A5F145
S315080005C020050EF1200E012A03FA0EFC28BF4CF076
S315080005D0020C43FA05F3C01851EBE37101F000452C
S315080005E007D54FF0000EDCF1000C7EEB00006EEB39
S315080005F00101B1F5801F1BD3B1F5001F0CD34908C3
S315080006005FEA30004FEA3C0C04F101044FEA445219
S3150800061012F5800F80F09A80BCF1004F08BF5FEAA0
S31508000620500C50F1000041EB045141EA050130BD80
S315080006305FEA4C0C404141EB010111F4801FA4F123
S315080006400104E9D191F0000F04BF01460020B1FA78
S3150800065081F308BF2033A3F10B03B3F120020CDAB0
S315080006600C3208DD02F1140CC2F10C0201FA0CF08E
S3150800067021FA02F10CE002F11402D8BFC2F1200CF3
S3150800068001FA02F120FA0CFCDCBF41EA0C019040A9
S31508000690E41AA2BF01EB0451294330BD6FEA0404F2
S315080006A01F3C1CDA0C340EDC04F11404C4F12002DD
S315080006B020FA04F001FA02F340EA030021FA04F3EF
S315080006C045EA030130BDC4F10C04C4F1200220FA46
S315080006D002F001FA04F340EA0300294630BD21FA84
S315080006E004F0294630BD94F0000F83F4801306BF4A
S315080006F081F480110134013D4EE77FEA645C18BF3E
S315080007007FEA655C29D094EA050F08BF90EA020FD4
S3150800071005D054EA000C04BF1946104630BD91EACC
S31508000720030F1EBF0021002030BD5FEA545C05D1CF
S315080007304000494128BF41F0004130BD14F580040E
S315080007403CBF01F5801130BD01F0004545F0FE4182
S3150800075041F470014FF0000030BD7FEA645C1ABFB7
S31508000760194610467FEA655C1CBF0B46024650EAEE
S31508000770013406BF52EA033591EA030F41F400211A
S3150800078030BD00BF90F0000F04BF0021704730B5A0
S315080007904FF4806404F132044FF000054FF0000175
S315080007A050E700BF90F0000F04BF0021704730B536
S315080007B04FF4806404F1320410F0004548BF40420B
S315080007C04FF000013EE700BF42004FEAE2014FEA60
S315080007D031014FEA02701FBF12F07F4393F07F4F3B
S315080007E081F06051704792F0000F14BF93F07F4F6D
S315080007F0704730B54FF4607401F0004521F00041B0
S3150800080020E700BF50EA010208BF704730B54FF035
S3150800081000050AE050EA010208BF704730B511F03A
S31508000820004502D5404261EB41014FF4806404F172
S3150800083032045FEA915C3FF4DCAE4FF003025FEAF4
S31508000840DC0C18BF03325FEADC0C18BF033202EB7C
S31508000850DC02C2F1200300FA03FC20FA02F001FAD6
S3150800086003FE40EA0E0021FA02F11444C1E600BF75
S3150800087070B54FF0FF0C4CF4E06C1CEA11541DBF28
S315080008801CEA135594EA0C0F95EA0C0F00F0DEF8F3
S315080008902C4481EA030621EA4C5123EA4C5350EAD8
S315080008A0013518BF52EA033541F4801143F4801329
S315080008B038D0A0FB02CE4FF00005E1FB02E506F0BA
S315080008C00042E0FB03E54FF00006E1FB03569CF00F
S315080008D0000F18BF4EF0010EA4F1FF04B6F5007F15
S315080008E064F5407404D25FEA4E0E6D4146EB060687
S315080008F042EAC62141EA55514FEAC52040EA5E5010
S315080009004FEACE2EB4F1FD0C88BFBCF5E06F1ED8B9
S31508000910BEF1004F08BF5FEA500E50F1000041EBF0
S31508000920045170BD06F0004646EA010140EA02009D
S3150800093081EA0301B4EB5C04C2BFD4EB0C0541EABF
S31508000940045170BD41F480114FF0000E013C00F3D4
S31508000950AB8014F1360FDEBF002001F0004170BDF8
S31508000960C4F10004203C35DA0C341BDC04F1140411
S31508000970C4F1200500FA05F320FA04F001FA05F29D
S3150800098040EA020001F0004221F0004110EBD3706A
S3150800099021FA04F642EB06015EEA430E08BF20EA96
S315080009A0D37070BDC4F10C04C4F1200500FA04F339
S315080009B020FA05F001FA04F240EA020001F00041CB
S315080009C010EBD37041F100015EEA430E08BF20EA3E
S315080009D0D37070BDC4F1200500FA05F24EEA020E86
S315080009E020FA04F301FA05F243EA020321FA04F0B5
S315080009F001F0004121FA04F220EA020000EBD3706C
S31508000A005EEA430E08BF20EAD37070BD94F0000F6B
S31508000A100FD101F00046400041EB010111F4801F9F
S31508000A2008BF013CF7D041EA060195F0000F18BF50
S31508000A30704703F00046520043EB030313F4801F8C
S31508000A4008BF013DF7D043EA0603704794EA0C0F46
S31508000A500CEA135518BF95EA0C0F0CD050EA41065C
S31508000A6018BF52EA4306D1D181EA030101F00041D9
S31508000A704FF0000070BD50EA410606BF1046194601
S31508000A8052EA430619D094EA0C0F02D150EA01360D
S31508000A9013D195EA0C0F05D152EA03361CBF10464E
S31508000AA019460AD181EA030101F0004141F0FE41ED
S31508000AB041F470014FF0000070BD41F0FE4141F471
S31508000AC0780170BD70B54FF0FF0C4CF4E06C1CEA71
S31508000AD011541DBF1CEA135594EA0C0F95EA0C0F26
S31508000AE000F0A7F8A4EB050481EA030E52EA0335E1
S31508000AF04FEA013100F088804FEA03334FF0805502
S31508000B0045EA131343EA12634FEA022245EA11152E
S31508000B1045EA10654FEA00260EF000419D4208BFDF
S31508000B20964244F1FD0404F5407402D25B084FEA8C
S31508000B303202B61A65EB03055B084FEA32024FF438
S31508000B4080104FF4002CB6EB020E75EB030E22BF95
S31508000B50B61A754640EA0C005B084FEA3202B6EB55
S31508000B60020E75EB030E22BFB61A754640EA5C0004
S31508000B705B084FEA3202B6EB020E75EB030E22BF94
S31508000B80B61A754640EA9C005B084FEA3202B6EB95
S31508000B90020E75EB030E22BFB61A754640EADC0054
S31508000BA055EA060E18D04FEA051545EA16754FEAB6
S31508000BB006164FEAC30343EA52734FEAC2025FEAD4
S31508000BC01C1CC0D111F4801F0BD141EA00014FF063
S31508000BD000004FF0004CB6E711F4801F04BF014334
S31508000BE00020B4F1FD0C88BFBCF5E06F3FF6AFAE50
S31508000BF0B5EB030C04BFB6EB020C5FEA500C50F1E0
S31508000C00000041EB045170BD0EF0004E4EEA113162
S31508000C1014EB5C04C2BFD4EB0C0541EA045170BD69
S31508000C2041F480114FF0000E013C90E645EA060EAD
S31508000C308DE60CEA135594EA0C0F08BF95EA0C0FDB
S31508000C403FF43BAF94EA0C0F0AD150EA01347FF423
S31508000C5034AF95EA0C0F7FF425AF104619462CE7FA
S31508000C6095EA0C0F06D152EA03353FF4FDAE10465D
S31508000C70194622E750EA410618BF52EA43067FF4AE
S31508000C80C5AE50EA41047FF40DAF52EA43057FF43E
S31508000C90EBAE12E74FF0FF3C06E000BF4FF0010C49
S31508000CA002E000BF4FF0010C4DF804CD4FEA410CAD
S31508000CB07FEA6C5C4FEA430C18BF7FEA6C5C1BD07A
S31508000CC001B050EA410C0CBF52EA430C91EA030FFB
S31508000CD002BF90EA020F0020704710F1000F91EA58
S31508000CE0030F58BF994208BF90422CBFD8176FEA26
S31508000CF0E37040F0010070474FEA410C7FEA6C5CF4
S31508000D0002D150EA013C07D14FEA430C7FEA6C5CFA
S31508000D10D6D152EA033CD3D05DF8040B704700BF26
S31508000D208446104662468C461946634600E000BF74
S31508000D3001B5FFF7B7FF002848BF10F1000F01BD46
S31508000D404DF808EDFFF7F4FF0CBF012000205DF811
S31508000D5008FB00BF4DF808EDFFF7EAFF34BF012096
S31508000D6000205DF808FB00BF4DF808EDFFF7E0FF2F
S31508000D7094BF012000205DF808FB00BF4DF808ED80
S31508000D80FFF7CEFF94BF012000205DF808FB00BFE7
S31508000D904DF808EDFFF7C4FF34BF012000205DF8C9
S31508000DA008FB00BF4FEA410C7FEA6C5C02D150EAAF
S31508000DB0013C0AD14FEA430C7FEA6C5C02D152EA45
S31508000DC0033C02D14FF0000070474FF00100704716
S31508000DD04FEA410212F5001215D211D56FF4787355
S31508000DE0B3EB625212D94FEAC12343F0004343EAF8
S31508000DF0505311F0004F23FA02F018BF40427047D3
S31508000E004FF00000704750EA013005D111F000405C
S31508000E1008BF6FF0004070474FF00000704700BFF2
S31508000E2080F0004002E000BF81F0004142001FBF91
S31508000E305FEA410392EA030F7FEA226C7FEA236C9A
S31508000E406AD04FEA1262D2EB1363C1BFD21841408F
S31508000E5048404140B8BF5B42192B88BF704710F025
S31508000E60004F40F4000020F07F4018BF404211F0C8
S31508000E70004F41F4000121F07F4118BF494292EA30
S31508000E80030F3FD0A2F1010241FA03FC10EB0C005C
S31508000E90C3F1200301FA03F100F0004302D54942E9
S31508000EA060EB4000B0F5000F13D3B0F1807F06D396
S31508000EB040084FEA310102F10102FE2A51D2B1F18E
S31508000EC0004F40EBC25008BF20F0010040EA030083
S31508000ED07047490040EB000010F4000FA2F1010230
S31508000EE0EDD1B0FA80FCACF1080CB2EB0C0200FABA
S31508000EF00CF0AABF00EBC25052421843BCBFD04008
S31508000F001843704792F0000F81F4000106BF80F481
S31508000F1000000132013BB5E74FEA41037FEA226C44
S31508000F2018BF7FEA236C21D092EA030F04D092F00F
S31508000F30000F08BF0846704790EA010F1CBF002043
S31508000F40704712F07F4F04D1400028BF40F00040A0
S31508000F50704712F100723CBF00F50000704700F0C0
S31508000F60004343F0FE4040F4000070477FEA2262E7
S31508000F7016BF08467FEA23630146420206BF5FEAB8
S31508000F80412390EA010F40F4800070474FF00003B8
S31508000F9004E000BF10F0004348BF40425FEA000C7F
S31508000FA008BF704743F0964301464FF000001CE027
S31508000FB050EA010208BF70474FF000030AE000BF7D
S31508000FC050EA010208BF704711F0004302D54042BB
S31508000FD061EB41015FEA010C02BF8446014600202D
S31508000FE043F0B64308BFA3F18053A3F50003BCFA48
S31508000FF08CF2083AA3EBC25310DB01FA02FC6344F5
S3150800100000FA02FCC2F12002BCF1004F20FA02F2FB
S3150800101043EB020008BF20F00100704702F12002EE
S3150800102001FA02FCC2F1200250EA4C0021FA02F24F
S3150800103043EB020008BF20EADC70704753B94AB98F
S31508001040002908BF00281CBF4FF0FF314FF0FF30C2
S3150800105000F07EB9ADF1080C6DE904CE00F006F893
S31508001060DDF804E0DDE9022304B070472DE9F04716
S315080010708C460E460446089D002B50D18A421746D8
S315080010806CD9B2FA82FEBEF1000F0BD0CEF1200465
S3150800109020FA04F401FA0EF644EA060C02FA0EF7F0
S315080010A000FA0EF44FEA1749220CBCFBF9F01FFAB6
S315080010B087F809FB10C642EA064600FB08F3B34266
S315080010C009D9F61900F1FF3280F02281B34240F2C5
S315080010D01F8102383E44F61AA2B2B6FBF9F309FBA1
S315080010E0136642EA064403FB08F8A04509D9E41941
S315080010F003F1FF3280F00A81A04540F20781023BE6
S315080011003C44C8EB040443EA00400021002D62D0A9
S3150800111024FA0EF400232C606B60BDE8F0878B423E
S3150800112007D9002D55D0002185E841000846BDE8BD
S31508001130F087B3FA83F1002940F09080B34202D3D6
S31508001140824200F2F880841A66EB03060120B44650
S31508001150002D40D085E81010BDE8F08712B90127A8
S31508001160B7FBF2F7B7FA87FEBEF1000F35D1F31BCE
S315080011704FEA17481FFA87FC0121B3FBF8F0220C47
S3150800118008FB103642EA06460CFB00F3B34207D9C1
S31508001190F61900F1FF3202D2B34200F2CE801046B1
S315080011A0F61AA2B2B6FBF8F308FB136642EA06443F
S315080011B00CFB03FCA44507D9E41903F1FF3202D25C
S315080011C0A44500F2B5801346CCEB040443EA00407C
S315080011D09CE729462846BDE8F087CEF1200106FAA5
S315080011E00EF307FA0EF720FA01F94FEA1748CE4030
S315080011F049EA0309B6FBF8FA4FEA194408FB1A66E6
S315080012001FFA87FC44EA06430AFB0CF29A4200FAE4
S315080012100EF40AD9DB190AF1FF3180F087809A4269
S3150800122040F28480AAF1020A3B449B1A1FFA89F904
S31508001230B3FBF8F108FB113349EA034301FB0CF64B
S315080012409E4207D9DB1901F1FF326BD29E4269D95A
S3150800125002393B449B1B41EA0A418EE7C1F1200E45
S3150800126022FA0EF48B40234320FA0EF706FA01F40D
S315080012704FEA134C26FA0EF63C43B6FBFCF9270C4C
S315080012800CFB19661FFA83F847EA064609FB08F7B6
S31508001290B74202FA01F200FA01FA08D9F61809F17A
S315080012A0FF3041D2B7423FD9A9F102091E44F61BC5
S315080012B0A0B2B6FBFCF40CFB146640EA064704FB36
S315080012C008F8B84507D9FF1804F1FF3028D2B84501
S315080012D026D9023C1F4444EA0940C8EB0707A0FB8D
S315080012E002894F4544464E4614D329D065B3BAEB16
S315080012F0040367EB060707FA0EFECB40CF404EEA1B
S31508001300030385E888000021BDE8F0871346F8E660
S315080013101046E0E6B8EB020469EB03060138E5E798
S315080013200446D8E7114695E78146C0E78A467CE732
S31508001330023B3C4448E708460AE702383E442FE7A2
S31508001340C245E7D33E46D1E72946BDE8F08700BF48
S31508001350704700BF30B58BB00024059406940794F7
S31508001360089409940094234B1A6B42F080021A637E
S315080013701A6B02F080020092009A01941A6B42F0EE
S3150800138004021A631A6B02F004020192019A02948B
S315080013901A6B42F001021A631A6B02F001020292FA
S315080013A0029A03941A6B42F002021A631A6B02F04D
S315080013B002020392039A04941A6B42F008021A6313
S315080013C01B6B03F008030493049B0B4D22464FF452
S315080013D07041284603F00CFD4FF470430593012332
S315080013E006930794089405A9284603F021FC0BB038
S315080013F030BD00BF00380240000C024010B582B074
S31508001400002400941E4B1A6B42F400121A631A6BDE
S3150800141002F400120092009A01941A6B42F48002B8
S315080014201A631B6B03F480030193019B2246062172
S31508001430102003F017FF102003F046FF224606216E
S31508001440112003F00FFF112003F03EFF224605216D
S31508001450382003F007FF382003F036FF224607211D
S31508001460392003F0FFFE392003F02EFF224607211C
S31508001470452003F0F7FE452003F026FF02B010BD15
S315080014800038024008B50848084B03604FF4E133BA
S31508001490436000238360C36003610C224261836159
S315080014A0C36102F015FE08BD9052002000140140E9
S315080014B008B50848084B0360084B4360002383605F
S315080014C0C36003610C2242618361C36102F000FEBE
S315080014D008BD00BFF05200200044004080841E0072
S315080014E008B50A480A4B03600C234360002383604F
S315080014F0C3604FF4802202614361037643768376A4
S31508001500C3760377437706F077FE08BD305300208D
S315080015100064004008B50A480A4B03600C23436080
S3150800152000238360C3604FF480220261436103761F
S3150800153043768376C3760377437706F05DFE08BD68
S315080015409C510020006800402DE9F04385B0002337
S315080015500093019302930393344C354A22604FF467
S3150800156080326260A36001252561A5612362E3627A
S31508001570304AA262E3600A26E66125636561204671
S3150800158007F0D2FA0095019503250295694620468B
S3150800159007F082FC4FF00509CDF80090022301936D
S315080015A06946204607F078FC4FF00608CDF800801B
S315080015B001956946204607F06FFC07250095042328
S315080015C001936946204607F067FC08270097CDF87F
S315080015D004906946204607F05FFC0B230093CDF87C
S315080015E004806946204607F057FC0C2300930195B2
S315080015F06946204607F050FC0F2300930197694679
S31508001600204607F049FC102300930923019302950D
S315080016106946204607F040FC112300930196694667
S31508001620204607F039FC05B0BDE8F083505100208C
S31508001630002001400100000F2DE9F04F2DED028B2F
S3150800164093B000F07BFA0023119360216B4808F0F1
S3150800165013FA044610B90B2008F004FE6021674807
S3150800166008F00AFA109014B96F2008F0FBFD602103
S31508001670624808F001FA0F9014B90C2008F0F2FD40
S315080016805F4B1B6806935F4B089308230993002357
S3150800169006E012AA1A4403F1300102F8201C0133AD
S315080016A0072BF6DD08238DF8303000248DF83140FD
S315080016B04FF40041544803F0A1FB544B9E6B274658
S315080016C04FF0FF3311AA0021204605F0FDF8119BC3
S315080016D013F0010F58D07D1C3A464D490FA808F063
S315080016E01BFA4C4A0FA94C4B186809F07BF94B4A70
S315080016F00FA94B4B186809F075F94A4A0FA94A4BC6
S31508001700186809F06FF9494A0FA9494B186809F092
S3150800171069F9484A0FA9484B186809F063F9474A16
S315080017200FA9474B186809F05DF905F07FFE0446D6
S3150800173007EE900AF8EE677A17EE900AFFF744F874
S315080017400022404BFFF794F8C4F570530293002229
S315080017503D4BFFF7B7F9CDE9000123464FF4705228
S315080017603A490FA808F0D8F9002408E000234FF0FA
S31508001770FF3206A93648006803F0CCFF0134062C70
S31508001780F4DD2F46012400E00024119B13F0020F1C
S3150800179096D044F002044FF400411B4803F02EFB98
S315080017A01A4DD5F810B095ED0D8AD5F838A0E86829
S315080017B0FFF70AF880468946C6EB0A06049618EE2D
S315080017C0100AFFF701F8CDE902015846FEF7FCFFBB
S315080017D0CDE9000142464B461E490FA808F09CF980
S315080017E0AE6B1D4BDA8FAB8A1C490968009112094A
S315080017F01B4910A808F090F962E700BF9052002034
S3150800180098510020000020C2000C0240906E002073
S31508001810B4EB0008D4EB000810500020E4EB0008F5
S31508001820044D0020F4EB00083C6C002004EC000892
S31508001830486C002014EC0008B06C002024EC00086A
S31508001840A44F0020000059400000CE4034EC0008A8
S31508001850306C00206CEC0008506E0020486E0020AA
S3150800186098EC000800B585B0002304AA42F8043DA8
S315080018700449086800920122114605F0E3F805B00C
S315080018805DF804FB1050002000B585B0002304AABB
S3150800189042F8043D0449086800920122022105F035
S315080018A0D1F805B05DF804FB1050002030B595B0AE
S315080018B03022002108A809F067FD00240394049447
S315080018C005940694079401941C4B1A6C42F08052B6
S315080018D01A641B6C03F080530193019B0294184B06
S315080018E01A6842F480421A601B6803F48043029324
S315080018F0029B012308934FF48033099302250E9522
S315080019004FF480030F93082310934FF4A873119391
S3150800191012950723139308A802F050FE0F2303938A
S31508001920049505944FF4A05306934FF480530793F8
S31508001930052103A803F088F815B030BD0038024029
S315080019400070004070B58EB003F0CAFC07F0B4FD15
S31508001950FFF7ACFFFFF7FEFCFFF750FDFFF792FD20
S31508001960FFF7A6FDFFF7BCFDFFF7D4FDFFF7ECFD7B
S31508001970534B0C9300240D94224601210CA805F024
S31508001980A9FB504E3060504B0A930B942246012116
S315080019900AA805F09FFB4D4D286030680094234641
S315080019A04FF42062042105F0E5F9286800942346DF
S315080019B04FF40072042105F0DDF903AD444E0FCE55
S315080019C00FC596E8070085E80700214603A805F035
S315080019D043FB404B1860204607F0A6FB2246102121
S315080019E03D4807F06BFBA04202DA012008F03AFCFA
S315080019F001220C21394807F061FB002802DA02208F
S31508001A0008F030FC08F06AF8002008F03FFA4FF4B6
S31508001A108061032007F09AFC10B9032008F022FC25
S31508001A20032007F057FC2021002007F07DFD402306
S31508001A30202201212A4807F031FE2A4B186010B9E6
S31508001A40072008F00FFC274B1B6893F9B030002BD2
S31508001A5002DA4D2008F006FC10230822022122484B
S31508001A6007F01CFE214B186010B9082008F0FAFB95
S31508001A700F221B49012007F0CFFF012802D10920B8
S31508001A8008F0F0FB012008F07DFD002008F04CFE70
S31508001A903021144B186808F023FD10B9102008F0FF
S31508001AA0E1FB0F4C1321204606F05AFE204606F0AD
S31508001AB0E3FC022008F012FF05F0C8FAFEE700BFB3
S31508001AC065180008E850002089180008E050002032
S31508001AD0E0EA00081050002090520020F052002042
S31508001AE030530020985100209C5100208852002035
S31508001AF008B50268024B9A4201D103F00BFC08BDF7
S31508001B00000C0040704700BF704700BF034B0360DE
S31508001B10034B0B6040231360704700BF240E002060
S31508001B20240B0020034B0360034B0B6080231360D8
S31508001B30704700BF780E0020240C002010B5094C11
S31508001B4000220949204605F00FFE0849204605F0FF
S31508001B5023FE0749204606F007FB204605F024FE2B
S31508001B6010BD00BF5C530020000000209400002038
S31508001B70340000200368B3F1A04F29D110B586B010
S31508001B804FF4C053019302230293002403940323C2
S31508001B9004930A23059301A90E4803F049F80E4B4E
S31508001BA05A6B42F080025A6300945A6C42F480429F
S31508001BB05A645B6C03F480430093009B224605211C
S31508001BC0432003F04FFB432003F07EFB06B010BD15
S31508001BD0704700BF000002400038024008B500F513
S31508001BE06F71D0F8EC0305F0FBFD08BD08B5C1EB35
S31508001BF0C10293000344D3F80422D0F8EC0305F09D
S31508001C001DFE08BD08B5C1EBC102930003445A6C1A
S31508001C10D0F8EC0305F046FE08BD00BF08B5D0F8BD
S31508001C20EC0305F0C9FE08BD10B50446C3680BB938
S31508001C30002100E00121D4F8EC0305F0A9FED4F850
S31508001C40EC0305F085FE10BD10B50446D0F8EC038C
S31508001C5005F0A2FE2268D2F8003E43F00103C2F85E
S31508001C60003E236A23B1034A136943F0060313614E
S31508001C7010BD00BF00ED00E008B5D0F8EC0305F094
S31508001C8095FE08BD08B5D0F8EC0305F0A3FE08BD1F
S31508001C9008B5D0F8EC0305F09BFE08BD08B5D0F8EA
S31508001CA0EC0305F099FE08BD08B5D0F8EC0305F07D
S31508001CB095FE08BD037863BB10B503461648C0F801
S31508001CC0EC33C3F820024FF0A043036004234360BB
S31508001CD00222C2600023036143618261C361036219
S31508001CE04362C362036300F0BBFC08B1FFF70AFF57
S31508001CF0094C8021204601F04BF94022002120465C
S31508001D0001F022F980220121204601F01DF9002068
S31508001D1010BD0020704700BF8055002008B5D0F8D8
S31508001D20200200F00FFD10B1022802D003E00020C7
S31508001D3008BD012008BD022008BD00BF10B51C461D
S31508001D4013462246D0F8200200F0E2FF10B102281E
S31508001D5002D003E0002010BD012010BD022010BDF6
S31508001D6008B5D0F8200201F007F810B1022802D011
S31508001D7003E0002008BD012008BD022008BD00BF01
S31508001D8008B5D0F8200201F081F810B1022802D077
S31508001D9003E0002008BD012008BD022008BD00BFE1
S31508001DA008B5D0F8200201F0A3F810B1022802D035
S31508001DB003E0002008BD012008BD022008BD00BFC1
S31508001DC0D0F8202211F0800F08D001F07F01C1EB76
S31508001DD0C1018B00134493F83A00704701F07F0164
S31508001DE0C1EBC1018B00134493F8FA01704700BF99
S31508001DF008B5D0F8200200F079FF10B1022802D009
S31508001E0003E0002008BD012008BD022008BD00BF70
S31508001E1008B5D0F8200201F011F810B1022802D056
S31508001E2003E0002008BD012008BD022008BD00BF50
S31508001E3008B5D0F8200200F0CBFF10B1022802D076
S31508001E4003E0002008BD012008BD022008BD00BF30
S31508001E5008B5D0F8200200F0E7FF08BD12230B8072
S31508001E60004870472000002004230B800048704774
S31508001E701C00002008B50A4620B90549054806F0A1
S31508001E801DF803E00249034806F018F8004808BDA3
S31508001E9070590020B8EC000810B5044C0A462146D3
S31508001EA0034806F00BF8204610BD00BF7059002005
S31508001EB0D0EC000808B50A4620B90549054805F0DA
S31508001EC0FDFF03E00249034805F0F8FF004808BD96
S31508001ED070590020E4EC000808B50A4620B90549FF
S31508001EE0054805F0EBFF03E00249034805F0E6FF65
S31508001EF0004808BD70590020F4EC000808B50A46E9
S31508001F0020B90549054805F0D9FF03E00249034809
S31508001F1005F0D4FF004808BD7059002000ED000800
S31508001F20002070470020704710B5054C0146204632
S31508001F3006F02AF9204606F045F9002010BD00BF34
S31508001F405C53002010B5064C00220649204606F0D0
S31508001F5013F90549204606F017F9002010BD00BF01
S31508001F605C53002070630020705B0020094BD3F897
S31508001F701832D3F8143253B910B50A460146054C3F
S31508001F80204606F0F9F8204606F004F910BD0120AF
S31508001F90704700BF5C530020704700BFFEE700BFD4
S31508001FA0FEE700BFFEE700BFFEE700BF704700BFC1
S31508001FB008B5024803F058F808BD00BF14500020C1
S31508001FC008B5024803F050F808BD00BFC451002008
S31508001FD008B5024806F0AEFE08BD00BF5051002005
S31508001FE008B5024806F0E2FB08BD00BF30530020E2
S31508001FF008B5024806F0DAFB08BD00BF30530020DA
S3150800200008B5024806F0D2FB08BD00BF30530020D1
S3150800201008B5024802F03CFA08BD00BFF05200209D
S3150800202008B5024801F008FD08BD00BF706B002026
S3150800203008B5024803F018F808BD00BF285200206A
S3150800204008B5024803F010F808BD00BF7450002018
S3150800205008B5024806F0AAFB08BD00BF9C5100203F
S3150800206008B5024806F0A2FB08BD00BF9C51002037
S3150800207008B5024806F09AFB08BD00BF9C5100202F
S3150800208008B5024800F074FB08BD00BF8055002063
S3150800209008B5024802F0E8FF08BD00BFF05000206E
S315080020A008B5024802F0F4F908BD00BF90520020B6
S315080020B000B583B0002200920D4B596C41F4804163
S315080020C05964596C01F48041009100990192196C88
S315080020D041F0805119641B6C03F080530193019BF6
S315080020E00F216FF0010003F0BDF803B05DF804FBA3
S315080020F00038024070B58AB000230593069307930B
S3150800210008930993026803F1804303F590339A42D2
S3150800211067D104460025019503F58C335A6C42F4C1
S3150800212080725A645A6C02F480720192019A02957E
S315080021301A6B42F004021A631A6B02F00402029246
S31508002140029A03951A6B42F001021A631A6B02F09F
S3150800215001020392039A04951A6B42F002021A636B
S315080021601B6B03F002030493049B262305930326A3
S31508002170069605A91C4802F05BFDE2230593069620
S31508002180079505A9194802F053FD012305930696FC
S31508002190079505A9164802F04BFD1648164B03602D
S315080021A045608560C5604FF4806303614FF4006342
S315080021B043614FF4005383614FF48073C361056232
S315080021C0456202F09BFE08B1FFF79CFC094BA3632E
S315080021D09C6300220621122003F044F8122003F023
S315080021E073F80AB070BD00BF000802400000024044
S315080021F000040240285200201064024010B58AB03C
S3150800220000230593069307930893099303684C4A9A
S31508002210934241D14B4A136801331360012B0BD10A
S3150800222000230093484B1A6C42F000721A641B6C28
S3150800223003F000730093009B00240194424B1A6B31
S3150800224042F008021A631B6B03F008030193019B13
S31508002250032305930222069208930923099305A9E5
S315080022603A4802F0E5FC22460521132002F0FAFF5F
S31508002270132003F029F822460721142002F0F2FF62
S31508002280142003F021F822460721152002F0EAFF60
S31508002290152003F019F851E02D4A93424ED1002338
S315080022A00293294B1A6C42F080621A641B6C03F085
S315080022B080630293029B234A136801331360012B40
S315080022C00BD100230393204B1A6C42F000721A6458
S315080022D01B6C03F000730393039B002404941A4BAE
S315080022E01A6B42F002021A631B6B03F00203049393
S315080022F0049B4FF440530593022306930323089344
S315080023000923099305A9134802F092FC22460521E0
S315080023103F2002F0A7FF3F2002F0D6FF2246072102
S31508002320402002F09FFF402002F0CEFF2246072100
S31508002330412002F097FF412002F0C6FF0AB010BD07
S3150800234000640040CC0E002000380240000C024019
S31508002350006800400004024030B58BB004460023F4
S31508002360059306930793089309930368644A93426F
S3150800237060D100250195634B1A6C42F400321A6449
S315080023801A6C02F400320192019A02951A6B42F015
S3150800239001021A631B6B03F001030293029B0C23D1
S315080023A00593022306930123079303230893072320
S315080023B0099305A9544802F03BFC5448544B036062
S315080023C04FF0006343608560C5604FF48063036126
S315080023D0456185614FF48073C3610562456202F009
S315080023E08DFD08B1FFF78EFB484B63639C63494834
S315080023F0494B03604FF0006343604023836000232A
S31508002400C3604FF48062026143618361C361036202
S31508002410436202F073FD08B1FFF774FB3D4B23637B
S315080024209C6300220621262002F01CFF262002F0CB
S315080024304BFF62E0394A93425FD100250395314B41
S315080024405A6C42F020025A645A6C02F02002039237
S31508002450039A04951A6B42F004021A631B6B03F085
S3150800246004030493049BC0230593022306930123C4
S315080024700793032308930823099305A9284802F01C
S31508002480D7FB2848284B03604FF0206343608560DC
S31508002490C5604FF480630361456185614FF48073BD
S315080024A0C3610562456202F029FD08B1FFF72AFB00
S315080024B01C4B63639C631D481D4B03604FF02063F0
S315080024C04360402383600023C3604FF48062026147
S315080024D043618361C3610362436202F00FFD08B181
S315080024E0FFF710FB114B23639C630022082147204A
S315080024F002F0B8FE472002F0E7FE0BB030BD00BF81
S3150800250000440040003802400000024014500020F9
S3150800251088600240C4510020A060024000140140B7
S31508002520000802407450002028640240F050002041
S31508002530A064024010B588B000220146322002F09D
S3150800254091FE322002F0C0FE00240194144B1A6C4E
S3150800255042F008021A641B6C03F008030193019BFE
S3150800256002A903A802F046FB02F024FB40000D4B2B
S31508002570A3FB00239B0C013B0B480C4A026040F26C
S31508002580E732C26043600461846001F09DFB18B9BC
S31508002590054801F03DFA00E0012008B010BD00BF73
S315080025A00038024083DE1B43706B0020000C00409D
S315080025B02DE9F04383B007460D46D0F80080CA00DF
S315080025C0521A93000344DE6C1A6DB61A1B6C9E42AF
S315080025D000D91E4606F103094FEA99091EE09E1A1C
S315080025E0C5EBC50293003B441B6C9E4200D91E46B0
S315080025F006F103094FEA9909EB005B1B9C003C4472
S31508002600616C3B7C0093B3B2EAB2404601F0B8F87D
S31508002610636C33446364236D33442365414608EB96
S31508002620451303F510639B699BB2994509D2EA00E5
S31508002630521B93003B441A6DDB6C9A4201D2002B65
S31508002640CDD146B9012303FA05F5D1F8343823EA82
S315080026500505C1F83458002003B0BDE8F08300BF73
S3150800266000286AD0F0B58BB00446032380F8B93346
S31508002670FFF780FA206800F0D1FC254655F8107B54
S315080026806E460FCD0FC60FCD0FC695E8030086E838
S315080026900300231D0ECB384600F07EFC002120687F
S315080026A000F0C2FC002210E0D100891A8B002344F6
S315080026B0012183F8391083F83820DA87002183F856
S315080026C03B1019645964D96401320E2AECD90022E8
S315080026D018E0D100891A8B002344002183F8F911E8
S315080026E083F8F821DA8783F8FB11C3F80012C3F8D8
S315080026F00412C3F80C12236802F1400003EB8003AE
S31508002700596001320E2AE4D9254655F8107B6E46E3
S315080027100FCD0FC60FCD0FC695E8030086E8030058
S31508002720231D0ECB384600F095FC012384F8B933F7
S31508002730206801F0CFF8002001E0012070470BB0B7
S31508002740F0BD00BF90F8B833012B0ED010B5044683
S31508002750012380F8B833006801F0B0F8206800F06B
S3150800276057FC002084F8B80310BD0220704700BF4C
S315080027702DE9F04704460668304601F0E7F80028D8
S3150800278040F09382206801F0B1F8002800F08D82AD
S31508002790206801F0ABF810F0020F04D022685369E4
S315080027A003F002035361206801F0A0F810F4002F2B
S315080027B05CD0206801F09EF80746002553E017F024
S315080027C0010F4ED05FFA85F94946206801F0A2F854
S315080027D0804610F0010F31D006EB45130122C3F8ED
S315080027E0082B03F530632269012A12D1E900491B37
S315080027F08A002244D2F800121B69C3F31203C91ACD
S31508002800C2F81012D2F80412D2F800320B44C2F8F9
S31508002810043249462046FFF7E9F92369012B0DD111
S3150800282065B9C5EBC50293002344D3F80C322BB91E
S3150800283004F56F720121206801F0A8F818F0080F56
S3150800284007D02046FFF7CAF906EB45130822C3F856
S31508002850082B18F0100F04D006EB45131022C3F806
S31508002860082B01357F08002FA9D100E00025206834
S3150800287001F03CF810F4802F69D0206801F042F886
S315080028800746002561E017F0010F5CD05FFA85F96D
S315080028904946206801F048F8804610F0010F2BD011
S315080028A0012202FA05F0D6F8343823EA0003C6F8FE
S315080028B0343806EB4513C3F808292369934207D130
S315080028C0EA00521B93002344596C1A6C0A445A6452
S315080028D049462046FFF796F92369012B0CD15DB9C5
S315080028E0C5EBC50293002344DB6C2BB904F56F7264
S315080028F00121206801F04AF818F0080F04D006EB09
S3150800290045130822C3F8082918F0100F04D006EB5F
S3150800291045131022C3F8082918F0400F04D006EB17
S3150800292045134022C3F8082918F0020F04D006EB15
S3150800293045130222C3F8082918F0800F03D0294648
S315080029402046FFF735FE01357F08002F9BD120680A
S3150800295000F0CCFF00280DDAD6F8043823F001037E
S31508002960C6F804382046FFF787F92268536903F04A
S3150800297000435361206800F0B9FF10F4006F0CD0D3
S31508002980D6F8083813F0010F02D02046FFF75CF995
S315080029902268536903F400635361206800F0A6FFB8
S315080029A010F4805F4FD0374606F50068D8F8043033
S315080029B023F00103C8F804301021206800F0F0FB6A
S315080029C0002207E007EB4213FF21C3F80819C3F8F2
S315080029D0081B013263689A42F4D34FF0FF33C8F8F4
S315080029E01830D8F81C3043F00113C8F81C30236B94
S315080029F063B1D8F8843043F00B03C8F88430D8F8AC
S31508002A00443043F00B03C8F844300BE0D8F81430D0
S31508002A1043F00B03C8F81430D8F8103043F00B0312
S31508002A20C8F81030D6F8003823F4FE63C6F8003824
S31508002A3004F56F72217C206800F0A8FF22685369AC
S31508002A4003F480535361206800F050FF10F4005FD0
S31508002A5000F09380206800F07DFF2268D36823F495
S31508002A607053D360206800F0C9FB50B90023E360B7
S31508002A704FF4007363612268D36843F41053D3603C
S31508002A8073E00323E3604023636102F08DF8884B0B
S31508002A900344884A934205D82268D36843F470539E
S31508002AA0D36062E0844B0344844A934205D8226883
S31508002AB0D36843F46053D36057E0A0F57403A3F5D5
S31508002AC010537F4A934205D82268D36843F450537B
S31508002AD0D3604AE0A0F18373A3F5E743794A9342AA
S31508002AE005D82268D36843F44053D3603DE0764B5B
S31508002AF00344764A934205D82268D36843F4305390
S31508002B00D36032E0724B0344724A934205D8226876
S31508002B10D36843F42053D36027E06F4B03446F4ACE
S31508002B20934205D82268D36843F41053D3601CE057
S31508002B30A0F1B773A3F55853694A934205D822689A
S31508002B40D36843F40053D3600FE0664B0344664AE8
S31508002B50934205D82268D36843F4E053D36004E06F
S31508002B602268D36843F4C053D3602046FFF75CF865
S31508002B702268536903F400535361206800F0B6FED7
S31508002B8010F0100F45D02268936923F01003936163
S31508002B90376A07F00F08C7F34343022B1FD147F6DE
S31508002BA0F0731F4230D03F094FEAC80AC8EB0A0340
S31508002BB04FEA8309A144C7F30A02D9F8041230463A
S31508002BC000F0F4FDC7F30A07D9F804323B44C9F804
S31508002BD00432D9F810321F44C9F8107214E0062BD3
S31508002BE012D1082204F56F71304600F0DFFDC7F3F5
S31508002BF00A174FEAC803C8EB03018A002244D2F831
S31508002C0010323B44C2F810322268936943F010032D
S31508002C109361206800F06AFE10F0080F07D020467E
S31508002C20FEF7FCFF2268536903F008035361206826
S31508002C3000F05CFE10F4801F08D0E9B22046FFF7CA
S31508002C4027F82268536903F480135361206800F05B
S31508002C504DFE10F4001F08D0E9B22046FFF712F81F
S31508002C602268536903F400135361206800F03EFE9E
S31508002C7010F0804F07D02046FFF710F822685369F6
S31508002C8003F080435361206800F030FE10F0040F13
S31508002C900BD023685D6815F0040F02D02046FFF7B5
S31508002CA003F8226853682B435360BDE8F08700BFDA
S31508002CB0405327FFFF340C00401E1BFF3F420F0006
S31508002CC07F4F12001FD6130060B6E5FE5FE31600BD
S31508002CD000D3CEFE3F771B00C05BB3FEBF91210039
S31508002CE01F753800E05459FEDF9C410090F8B83350
S31508002CF0012B0BD010B50446012380F8B8330068C1
S31508002D0000F0CCFD002084F8B80310BD02207047FF
S31508002D1070B54DB2002D07DA01F07F06C6EBC60680
S31508002D20B4003834044407E001F07F06C6EBC60653
S31508002D30B40004F5FC74044401F07F012170ED0F22
S31508002D406570A260E37005B1E180022B01D1002312
S31508002D50237190F8B833012B0BD00546012380F870
S31508002D60B8332146006800F069FA002085F8B803F0
S31508002D7070BD022070BD00BF10B54AB2002A07DA3E
S31508002D8001F07F04C4EBC404A3003833034407E00E
S31508002D9001F07F04C4EBC404A30003F5FC730344E9
S31508002DA001F07F011970D20F5A7090F8B823012AE2
S31508002DB00BD00446012280F8B8231946006800F0B3
S31508002DC089FA002084F8B80310BD022010BD00BFA0
S31508002DD070B501F07F06F500A91B8C0004F5FC749C
S31508002DE00119AD1BAC000444C4F80422C4F80C3223
S31508002DF00023C4F8103284F8F93184F8F8610369BD
S31508002E00012B05D1C6EBC605AC000444C4F808225C
S31508002E1026B9DAB2006800F003FC03E0DAB200680B
S31508002E2000F0D2FA002070BD01F00F01C1EBC1011C
S31508002E308B001844B0F81002704700BF70B501F057
S31508002E407F06F500A91B8C0038340119AD1BAC00B0
S31508002E5004446264E36400232365012384F839305B
S31508002E6084F838600369012B04D1C6EBC605AC00AB
S31508002E700444A26426B9DAB2006800F0D1FB03E084
S31508002E80DAB2006800F0A0FA002070BD38B54AB280
S31508002E90002A07DA01F07F04C4EBC404A300383320
S31508002EA0034405E0C1EBC104A30003F5FC73034426
S31508002EB001249C7001F07F041C70D20F5A7090F8A0
S31508002EC0B823012A12D00546012280F8B8231946EC
S31508002ED0006800F07DFC2CB905F56F72297C28681E
S31508002EE000F054FD002085F8B80338BD022038BD2F
S31508002EF010B54AB2002A07DA01F07F04C4EBC4040D
S31508002F00A3003833034405E0C1EBC104A30003F56D
S31508002F10FC73034400249C7001F07F011970D20FE2
S31508002F205A7090F8B823012A0BD00446012280F87B
S31508002F30B8231946006800F07DFC002084F8B80321
S31508002F4010BD022010BD00BF30B40468636A19B909
S31508002F5043EA0240A06218E00D46A06A03EB10405F
S31508002F60002308E003F1400104EB8101496800EB06
S31508002F7011400133DBB2691E8B42F3DB40EA0240A3
S31508002F8005F13F0104EB81014860002030BC704721
S31508002F90036859620020704784B010B5044603A838
S31508002FA080E80E00089B012B18D1A36B23F480330D
S31508002FB0A363E36823F4840323F04003E360E36830
S31508002FC023F44013E3600F9B012B03D1E36843F41A
S31508002FD08013E360204600F0FBFC09E0E36843F059
S31508002FE04003E360204600F0F3FC4FF48033A3630C
S31508002FF0069B012B07D1A36843F00603A360A368C9
S3150800300043F02003A3600020BDE8104004B07047D9
S31508003010836843F00103836000207047836823F0C8
S31508003020010383600020704708B5C36823F0C043D6
S31508003030C360012904D1C36843F00053C36004E0A8
S3150800304019B9C36843F08043C360322002F074F9AB
S31508003050002008BD84B0F8B5054607A880E80E002C
S31508003060119F27B9AB6B43F40013AB6303E0AB6B5B
S3150800307043F40023AB632C460023C5F8003E05F550
S315080030800066D5F80038C5F800380C9B012B0BD123
S31508003090099B23B90021284600F0A8F808E0012179
S315080030A0284600F0A3F803E00321284600F09EF81E
S315080030B01021284600F074F8284600F085F8002309
S315080030C0336173614FF0FF32B261F36114E004EBD0
S315080030D0431202F51061D2F80009002804DA4FF00D
S315080030E09040C2F8000902E00020C2F80009002258
S315080030F00A61FF228A60013307998B42E7D30023CE
S3150800310016E004EB431202F53060D2F800EBBEF18C
S31508003110000F04DA4FF0904EC2F800EB03E04FF0D0
S31508003120000EC2F800EB00220261FF228260013322
S315080031308B42E6D3336923F4807333610A9B012BF0
S3150800314008D1154A3263326B42F4803242F00302E8
S315080031503263326B0022AA616FF080426A611BB942
S31508003160AB6943F01003AB61AA690C4B1343AB611F
S315080031700D9B1BB1AB6943F00803AB61012F05D169
S31508003180AB6943F0804343F00403AB610020BDE81C
S31508003190F84004B0704700BF0001800000383C804A
S315080031A0890141F02001016100230133054A934258
S315080031B005D8026912F0200FF7D1002070470320C6
S315080031C0704700BF400D030010230361002301333D
S315080031D0054A934205D8026912F0100FF7D100206C
S315080031E070470320704700BF400D0300D0F8003831
S315080031F01943C0F800180020704700BFD0F80838F7
S3150800320000F5006013F0060F10D0836803F006037C
S31508003210022B0DD0836803F00603062B0AD08368B9
S3150800322003F00603042B07D00020704700207047E0
S3150800323003207047032070470220704730B44B784C
S31508003240012B23D1D0F81C480B78012202FA03F38C
S315080032509BB22343C0F81C380D7800EB4510D0F814
S31508003260003913F4004F31D1D0F800398A68C2F317
S315080032700A04CA7844EA824242EA8552134343F072
S31508003280805343F40043C0F800391FE0D0F81C28E7
S315080032900D780123AB4042EA0343C0F81C380B788B
S315080032A000EB4310D0F8003B13F4004F0ED1D0F8D2
S315080032B0003B8A68C2F30A02C97842EA814213438C
S315080032C043F0805343F40043C0F8003B002030BC71
S315080032D0704700BF38B54B78012B37D10B780446B9
S315080032E000EB4313D3F8002922F40042C3F800295F
S315080032F00B7800EB43134FF00062C3F800290B78F4
S3150800330000EB43134FF08042C3F800290022013234
S315080033102C4B9A4251D80B7804EB431303F51063F0
S315080033209B6813F0804FF2D10D4604461021FFF733
S3150800333037FFD4F81C182B78012202FA03F39BB244
S3150800334021EA0303C4F81C38002038BD0B7804466C
S3150800335000EB4313D3F8002B22F40042C3F8002BEA
S315080033600B7800EB43134FF00062C3F8002B0B7881
S3150800337000EB43134FF08042C3F8002B00220132C2
S31508003380104B9A421BD80B7804EB431303F53063B2
S315080033909B6813F0100FF2D1D0F8043843F4806319
S315080033A0C0F80438D0F81C28097801238B4022EA93
S315080033B00343C0F81C38002038BD032038BD03205D
S315080033C038BD00BF400D030070B582B04B78012BA5
S315080033D040F0AB804B69EBB90B7800EB4313D3F89D
S315080033E0104924F0FF5424F4C014C3F810490B788C
S315080033F000EB4313D3F8104944F40024C3F81049EA
S315080034000B7800EB4313D3F81049E40CE404C3F833
S31508003410104944E00B7800EB4313D3F81049E40C49
S31508003420E404C3F810490B7800EB4313D3F81049AA
S3150800343024F0FF5424F4C014C3F810490C7800EBA8
S315080034404414D4F810694B698D682B44013BB3FBCF
S31508003450F5F3724D05EAC3433343C4F810390B78C4
S3150800346000EB4313D3F810594C69C4F312042C43E8
S31508003470C3F81049CB78012B11D10B7800EB431315
S31508003480D3F8104924F0C044C3F810490B7800EB70
S315080034904313D3F8104944F00054C3F81049012ADD
S315080034A006D10B7800EB43130C69C3F814490DE0F9
S315080034B0CB78012B0AD04B6943B1D0F834680B7826
S315080034C0012404FA03F33343C0F83438CB78012BCC
S315080034D017D1D0F8083813F4807F09D10B7800EBA0
S315080034E04313D3F8004944F00054C3F8004908E0F0
S315080034F00B7800EB4313D3F8004944F08054C3F823
S3150800350000490B7800EB4313D3F8004944F0044410
S31508003510C3F80049CB78012B7CD114468B8A0A78EC
S31508003520C968009400F02CF974E00B7800EB43139B
S31508003530D3F8104BE40CE404C3F8104B0B7800EBFB
S315080035404313D3F8104B24F0FF5424F4C014C3F8E3
S31508003550104B4B69A3B90B7800EB4313D3F8105BF8
S315080035608C68C4F312042C43C3F8104B0B7800EB99
S315080035704313D3F8104B44F40024C3F8104B1DE052
S315080035808C682344013BB3FBF4F30C7800EB44143A
S31508003590D4F8106B214D05EAC3453543C4F8105BD2
S315080035A00D7800EB4515D5F8106B8C689BB204FBBB
S315080035B003F4C4F312043443C5F8104B012A05D1A9
S315080035C00B7800EB4313CA68C3F8142BCB78012B8E
S315080035D017D1D0F8083813F4807F09D10B7800EB9F
S315080035E04313D3F8002B42F00052C3F8002B08E02F
S315080035F00B7800EB4313D3F8002B42F08052C3F844
S31508003600002B0B7800EB4310D0F8003B43F0044343
S31508003610C0F8003B002002B070BD00BF0000F81FD4
S3150800362030B44B78012B6BD14B69EBB90B7800EBB7
S315080036304313D3F8104924F0FF5424F4C014C3F8F4
S3150800364010490B7800EB4313D3F8104944F40024CF
S31508003650C3F810490B7800EB4313D3F81049E40C70
S31508003660E404C3F810492CE00B7800EB4313D3F8B5
S315080036701049E40CE404C3F810490B7800EB431333
S31508003680D3F8104924F0FF5424F4C014C3F81049A1
S315080036904C698B689C4200D94B610B7800EB43134D
S315080036A0D3F8104944F40024C3F810490B7800EB0A
S315080036B04313D3F810594C69C4F312042C43C3F8C6
S315080036C010490B7800EB4313D3F8004944F004443F
S315080036D0C3F80049012A06D10B7800EB43100B69A1
S315080036E0C0F8143949E04B69002B46D0D0F8344865
S315080036F00B78012202FA03F32343C0F834383CE07E
S315080037000B7800EB4313D3F8104BE40CE404C3F82E
S31508003710104B0B7800EB4313D3F8104B24F0FF54EF
S3150800372024F4C014C3F8104B4B690BB18B684B617A
S315080037300B7800EB4313D3F8104B44F40024C3F87A
S31508003740104B0B7800EB4313D3F8105B8C68C4F36B
S3150800375012042C43C3F8104B012A05D10B7800EB51
S315080037604313CA68C3F8142B0B7800EB4310D0F840
S31508003770003B43F00443C0F8003B002030BC7047D0
S3150800378070B49DF80C406CB903339B08002507E01C
S3150800379000EB023404F5805451F8046B26600135B9
S315080037A09D42F5D3002070BC704700BF10B40332A9
S315080037B09208002305E000F58054246841F8044B7C
S315080037C001339342F7D308465DF8044B704700BFB0
S315080037D04B78012B16D10B7800EB4313D3F800294D
S315080037E0002A05DBD3F8002922F08042C3F8002915
S315080037F00B7800EB4310D0F8003943F40013C0F8F7
S31508003800003915E00B7800EB4313D3F8002B002A98
S3150800381005DBD3F8002B22F08042C3F8002B0B7887
S3150800382000EB4310D0F8003B43F40013C0F8003B0C
S31508003830002070474B78012B17D10B7800EB431308
S31508003840D3F8002922F40012C3F80029CB78023BEA
S31508003850DBB2012B20D80B7800EB4310D0F80039E7
S3150800386043F08053C0F8003916E00B7800EB431399
S31508003870D3F8002B22F40012C3F8002BCB78023BB6
S31508003880DBB2012B08D80B7800EB4310D0F8003BCD
S3150800389043F08053C0F8003B00207047D0F800384A
S315080038A023F4FE63C0F80038D0F80038090101F4A3
S315080038B0FE610B43C0F800380020704708B5D0F801
S315080038C0043823F00203C0F80438032001F034FD5D
S315080038D0002008BD08B5D0F8043843F00203C0F844
S315080038E00438032001F028FD002008BD42698069DC
S315080038F01040704700F50063D0F81808DB691840D7
S31508003900000C704700F50063D0F81808DB6918400A
S3150800391080B2704700EB4111D1F8082B00F5006022
S3150800392040691040704700BF10B4D0F81048D0F86E
S315080039303438CB40DB01DBB2234300EB411000F502
S315080039401060806818405DF8044B7047406900F0C5
S3150800395001007047D0F8003923F4FF6323F007030A
S31508003960C0F8003900F500639A6802F00602042AD6
S3150800397005D1D0F8002942F00302C0F800295A6898
S3150800398042F480725A600020704700BF10B40024C9
S31508003990C0F8104BD0F8104B44F40024C0F8104B74
S315080039A0D0F8104B44F01804C0F8104BD0F8104B60
S315080039B044F0C044C0F8104B012905D1C0F8142BB7
S315080039C04FF08023C0F8003B00205DF8044B704799
S315080039D0002301330C4A934211D80269002AF8DA07
S315080039E0036943F00103036100230133064A934246
S315080039F007D8026912F0010FF7D10020704703209B
S31508003A0070470320704700BF400D0300704700BF92
S31508003A100268D36843F00103D3600268136843F071
S31508003A200103136000207047704700BF704700BF4E
S31508003A30704700BF704700BF10B5044603681A698F
S31508003A4012F0020F17D0DA6812F0020F13D06FF0D7
S31508003A5002021A610123037603689B6913F0030FB8
S31508003A6002D0FFF7E3FF04E0FFF7DEFF2046FFF78B
S31508003A70DFFF0023237623681A6912F0040F19D092
S31508003A80DA6812F0040F15D06FF004021A610223E7
S31508003A90237623689B6913F4407F03D02046FFF7FB
S31508003AA0C5FF05E02046FFF7BFFF2046FFF7C0FF2A
S31508003AB00023237623681A6912F0080F19D0DA68EA
S31508003AC012F0080F15D06FF008021A610423237646
S31508003AD02368DB6913F0030F03D02046FFF7A6FF20
S31508003AE005E02046FFF7A0FF2046FFF7A1FF0023C9
S31508003AF0237623681A6912F0100F19D0DA6812F0C3
S31508003B00100F15D06FF010021A6108232376236868
S31508003B10DB6913F4407F03D02046FFF787FF05E0F3
S31508003B202046FFF781FF2046FFF782FF0023237612
S31508003B3023681A6912F0010F09D0DA6812F0010F2A
S31508003B4005D06FF001021A612046FDF7D1FF236800
S31508003B501A6912F0800F09D0DA6812F0800F05D0C2
S31508003B606FF080021A61204600F0CCF823681A69C3
S31508003B7012F0400F09D0DA6812F0400F05D06FF046
S31508003B8040021A612046FFF755FF23681A6912F0AA
S31508003B90200F09D0DA6812F0200F05D06FF0200246
S31508003BA01A61204600F0ACF810BD00BF0368454A0C
S31508003BB0904214D0B0F1804F13D0A2F57C429042C7
S31508003BC011D002F5806290420FD002F580629042D1
S31508003BD00DD002F5784290420BD101220AE001226B
S31508003BE008E0012206E0012204E0012202E00122A7
S31508003BF000E000221AB123F070034A681343314AE1
S31508003C0090422CD0B0F1804F2BD0A2F57C42904246
S31508003C1029D002F58062904227D002F58062904250
S31508003C2025D002F57842904223D002F57052904290
S31508003C3021D002F5806290421FD002F58062904240
S31508003C401DD0A2F5983290421BD002F580629042B0
S31508003C5019D002F58062904217D1012216E001229E
S31508003C6014E0012212E0012210E001220EE00122F6
S31508003C700CE001220AE0012208E0012206E0012206
S31508003C8004E0012202E0012200E000221AB123F436
S31508003C904073CA68134303608B68C3620B68836208
S31508003CA0084B984205D003F58063984203D1012357
S31508003CB002E0012300E000230BB10B690363012333
S31508003CC04361704700000140B8B110B5044690F84A
S31508003CD0393013F0FF0F04D1002380F83830FFF78E
S31508003CE095FE022384F83930211D2068FFF75EFF10
S31508003CF0012384F83930002010BD0120704700BF29
S31508003D00704700BF704700BF0268D36823F0C0033E
S31508003D10D360202380F83930704700BF0268D36823
S31508003D2023F49073D3600268536923F00103536147
S31508003D30202380F83A30704790F83930DBB2212BCF
S31508003D402BD18368B3F5805F0FD1036A02681B889D
S31508003D50C3F30803536003691BB9036A023303629A
S31508003D6009E0036A0133036205E00268036A591C25
S31508003D7001621B785360C38C9BB2013B9BB2C38420
S31508003D806BB90268D36823F08003D3600268D368EE
S31508003D9043F04003D360002070470220704700209C
S31508003DA0704700BF2DE9F843044601680B6923F400
S31508003DB04052C36813430B610068C36823F4164274
S31508003DC022F00C02A1682369194363691943E36960
S31508003DD00B431343C36021684B6923F44072A369FC
S31508003DE013434B61E369B3F5004F40F0BB80276886
S31508003DF003F1804303F510439F4203D003F5806324
S31508003E009F4257D100F0E6FE00EB800000EB8000F1
S31508003E1065686D00B0FBF5F5AB4EA6FB05356D097B
S31508003E202D0100F0D7FE00EB800000EB80006368F0
S31508003E305B00B0FBF3F900F0CDFE00EB800000EB71
S31508003E40800063685B00B0FBF3F3A6FB03235B0902
S31508003E504FF0640808FB1393DB003233A6FB0323F9
S31508003E605B095B0003F4F8731D4400F0B3FE00EB36
S31508003E70800000EB800063685B00B0FBF3F900F09C
S31508003E80A9FE00EB800000EB800063685B00B0FBD6
S31508003E90F3F3A6FB03235B0908FB13984FEAC8084C
S31508003EA008F13208A6FB0836C6F342163544BD604B
S31508003EB0BDE8F88300F07EFE00EB800000EB800092
S31508003EC065686D00B0FBF5F57F4EA6FB05356D09F7
S31508003ED02D0100F06FFE00EB800000EB80006368A8
S31508003EE05B00B0FBF3F900F065FE00EB800000EB29
S31508003EF0800063685B00B0FBF3F3A6FB03235B0952
S31508003F004FF0640808FB1393DB003233A6FB032348
S31508003F105B095B0003F4F8731D4400F04BFE00EBED
S31508003F20800000EB800063685B00B0FBF3F900F0EB
S31508003F3041FE00EB800000EB800063685B00B0FB8D
S31508003F40F3F3A6FB03235B0908FB13984FEAC8089B
S31508003F5008F13208A6FB0836C6F342163544BD609A
S31508003F60BDE8F8832668594B9E4203D003F5806363
S31508003F709E4254D100F02EFE00EB800000EB80003C
S31508003F806568AD00B0FBF5F54F4FA7FB05356D0924
S31508003F902D0100F01FFE00EB800000EB8000636837
S31508003FA09B00B0FBF3F800F015FE00EB800000EB79
S31508003FB0800063689B00B0FBF3F3A7FB03235B0950
S31508003FC04FF0640909FB13831B013233A7FB032354
S31508003FD05B0903F0F0031D4400F0FCFD00EB8000D4
S31508003FE000EB800063689B00B0FBF3F800F0F2FD7D
S31508003FF000EB800000EB800063689B00B0FBF3F3E6
S31508004000A7FB03235B0909FB13831B013233A7FBB9
S315080040100323C3F343131D44B560BDE8F88300F0DA
S31508004020C9FD00EB800000EB80006568AD00B0FBC1
S31508004030F5F5254FA7FB05356D092D0100F0BAFDED
S3150800404000EB800000EB800063689B00B0FBF3F890
S3150800405000F0B0FD00EB800000EB800063689B0079
S31508004060B0FBF3F3A7FB03235B094FF0640909FBD5
S3150800407013831B013233A7FB03235B0903F0F00309
S315080040801D4400F097FD00EB800000EB800063689C
S315080040909B00B0FBF3F800F08DFD00EB800000EB11
S315080040A0800063689B00B0FBF3F3A7FB03235B095F
S315080040B009FB13831B013233A7FB0323C3F3431303
S315080040C01D44B560BDE8F8831F85EB51001001401B
S315080040D068B310B5044690F8393013F0FF0F04D1D1
S315080040E0002380F83830FEF737F9242384F839306E
S315080040F02268D36823F40053D3602046FFF752FEA4
S315080041002268136923F4904313612268536923F0E4
S315080041102A0353612268D36843F40053D36000200E
S31508004120E063202384F8393084F83A3010BD012042
S31508004130704700BF90F83930DBB2202B16D1B9B1E1
S31508004140C2B190F83830012B16D001628284C2843D
S315080041500023C363212280F8392080F838300168AB
S31508004160CA6842F08002CA60184670470220704743
S3150800417001207047012070470220704790F83A30B6
S31508004180DBB2202B1BD1E1B1EAB190F83830012B14
S315080041901BD081628285C2850023C363222280F8F0
S315080041A03A2080F8383001684A6942F001024A61CB
S315080041B00168CA6842F49072CA60184670470220BD
S315080041C0704701207047012070470220704700BFE2
S315080041D038B590F83940E4B2202C31D1002931D0D5
S315080041E0002A31D090F83830012B2FD013460446D8
S315080041F0012280F8382001628384C3840025C563C0
S31508004200212280F83920026B1148D063226B1148AD
S315080042101064226B1048D064226B1565226804323C
S31508004220206B00F0D3FE23686FF040021A6084F812
S3150800423038502268536943F080035361284638BDD5
S31508004240022038BD012038BD012038BD022038BD06
S3150800425005430008554300084144000830B583B0BB
S3150800426090F83A40E4B2202C3DD100293DD0002AEE
S315080042703DD090F83830012B3BD013460A46044609
S31508004280012180F83810826283850025C5632221C2
S3150800429080F83A10416B1848C863616B1748086480
S315080042A0616B1748C864616B0D6521680431606BE2
S315080042B000F08CFE019523681A6801925A680192EB
S315080042C0019A84F83850DA6842F48072DA60226813
S315080042D0536943F0010353612268536943F040036D
S315080042E05361284606E0022004E0012002E001208E
S315080042F000E0022003B030BD6143000835440008E1
S315080043004144000808B5836B0268126812F4807F7E
S315080043100CD10022DA8419684A6922F080024A61BF
S315080043201A68D36843F04003D36008BD184604F002
S315080043301FFF08BD08B50168CB6823F04003CB60B2
S31508004340202380F8393004F013FF002008BD00BF91
S31508004350704700BF08B5806BFFF7FAFF08BD00BFBE
S3150800436008B5836B0268126812F4807F13D10022A5
S31508004370DA851968CA6822F48072CA6019684A69B7
S3150800438022F001024A6119684A6922F040024A612C
S31508004390202283F83A20184605F08CFD08BD00BF98
S315080043A008B590F83A30DBB2222B3FD18368B3F5D3
S315080043B0805F13D1826A036943B903685B68C3F3F4
S315080043C008031380836A0233836218E003685B6814
S315080043D0DBB21380836A0133836210E0036933B961
S315080043E0836A5A1C8262026852681A7007E0826AF7
S315080043F0531C836203685B6803F07F031370C38DE5
S315080044009BB2013B9BB2C38593B90268D36823F478
S315080044109073D3600268536923F001035361202324
S3150800442080F83A3005F046FD002008BD022008BD98
S31508004430002008BD08B5806B05F072FD08BD00BFF9
S3150800444010B5846B23685B6903F0800294F83930F1
S31508004450DBB2212B05D122B10023E3842046FFF7E6
S3150800446053FC23685B6903F0400294F83A30DBB2E8
S31508004470222B05D122B10023E3852046FFF74EFC07
S31508004480E36B43F01003E363204605F04DFD10BDD2
S3150800449010B5044602681368D168526913F00F0014
S315080044A009D113F0200F06D011F0200F03D02046B3
S315080044B0FFF776FF10BD002862D012F0010202D184
S315080044C011F4907F5CD013F0010F06D011F4807FB1
S315080044D003D0E06B40F00100E06313F0040F04D052
S315080044E01AB1E06B40F00200E06313F0020F04D04B
S315080044F01AB1E06B40F00400E06313F0080F04D033
S315080045001AB1E26B42F00802E263E26B002A4AD073
S3150800451013F0200F05D011F0200F02D02046FFF728
S315080045203FFF23685B6903F04003E26B12F0080F54
S3150800453000D1FBB12046FFF7F1FB23685A6912F058
S31508004540400F13D05A6922F040025A61636B4BB18F
S31508004550154A1A65606B00F073FD20B3606B036D36
S31508004560984710BD204605F0DFFC10BD204605F033
S31508004570DBFC10BD204605F0D7FC0023E36310BD25
S3150800458013F0800F06D011F0800F03D02046FFF7F6
S31508004590D3FB10BD13F0400F05D011F0400F02D029
S315080045A02046FFF7C7FE10BDAD45000808B5806B6D
S315080045B00023C385C38405F0B7FC08BD002800F0B6
S315080045C0B58170B582B00446036813F0010F5AD05E
S315080045D0A04B9B6803F00C03042B0AD09D4B9B68E9
S315080045E003F00C03082B0DD19A4B5B6813F4800F6C
S315080045F008D0984B1B6813F4003F44D06368002B1F
S3150800460041D195E16368B3F5803F05D1914A1368B6
S3150800461043F48033136015E0B3F5A02F09D18D4B11
S315080046201A6842F480221A601A6842F480321A60C4
S3150800463008E0884B1A6822F480321A601A6822F455
S3150800464080221A6063687BB100F070FE054605E0BB
S3150800465000F06CFE401B642800F26C817D4B1B68E1
S3150800466013F4003FF4D00EE000F060FE054605E0C6
S3150800467000F05CFE401B642800F25E81754B1B68E7
S3150800468013F4003FF4D1236813F0020F50D0714B96
S315080046909B6813F00C0F0AD06E4B9B6803F00C0353
S315080046A0082B16D16B4B5B6813F4800F11D1694B3D
S315080046B01B6813F0020F03D0E368012B40F03E811C
S315080046C0644A136823F0F803216943EAC1031360B7
S315080046D02EE0E368D3B101225F4B1A6000F026FE94
S315080046E0054605E000F022FE401B022800F228815C
S315080046F0584B1B6813F0020FF4D0564A136823F080
S31508004700F803216943EAC103136011E00022524B02
S315080047101A6000F00BFE054605E000F007FE401B98
S31508004720022800F20F814B4B1B6813F0020FF4D1DD
S31508004730236813F0080F26D0636993B10122474B0B
S315080047401A6000F0F3FD054605E000F0EFFD401B9A
S31508004750022800F2F9803F4B5B6F13F0020FF4D08A
S3150800476011E000223D4B1A6000F0E0FD054605E029
S3150800477000F0DCFD401B022800F2E880354B5B6F39
S3150800478013F0020FF4D1236813F0040F7CD0314BD9
S315080047901B6C13F0805F0DD1002301932D4B1A6C0F
S315080047A042F080521A641B6C03F080530193019BFC
S315080047B0012500E000252A4B1B6813F4807F13D1DE
S315080047C0274A136843F48073136000F0AFFD06466A
S315080047D005E000F0ABFD801B022800F2B980204BF3
S315080047E01B6813F4807FF4D0A368012B05D1194AFE
S315080047F0136F43F00103136714E0052B09D1154B1A
S315080048001A6F42F004021A671A6F42F001021A6719
S3150800481008E0104B1A6F22F001021A671A6F22F08D
S3150800482004021A67A3688BB100F080FD064607E00C
S3150800483000F07CFD801B41F28833984200F28A80A2
S31508004840044B1B6F13F0020FF2D017E000F06EFD59
S3150800485006460EE00038024000004742800E4742F6
S315080048600070004000F062FD801B41F288339842D8
S3150800487072D8404B1B6F13F0020FF3D125B13D4A96
S31508004880136C23F080531364A369002B66D0394A4E
S31508004890926802F00C02082A62D0022B33D1002259
S315080048A0354B1A6000F042FD054604E000F03EFD77
S315080048B0401B022856D82F4B1B6813F0007FF5D1F2
S315080048C0E269236A1343626A43EA8213A26A5208B8
S315080048D0013A43EA0243E26A43EA0263254A53601D
S315080048E00122254B1A6000F021FD044604E000F081
S315080048F01DFD001B022837D81E4B1B6813F0007FCE
S31508004900F5D0002033E000221B4B1A6000F00EFDA4
S31508004910044604E000F00AFD001B022826D8154BC1
S315080049201B6813F0007FF5D1002020E001207047B6
S3150800493001201CE003201AE0032018E0012016E0FD
S31508004940032014E0032012E0032010E003200EE009
S3150800495003200CE003200AE0032008E0002006E01C
S31508004960012004E0032002E0032000E0032002B057
S3150800497070BD00BF003802406000474238B52F4B73
S315080049809B6803F00C03042B55D0082B01D02C4848
S3150800499038BD2A4B5A6802F03F025B6813F4800F51
S315080049A020D0264B5B68C3F38813DC000025690119
S315080049B041EAD4616001041B61EB0505A90141EADE
S315080049C09461A001001B61EB0501C01841F10001CB
S315080049D04B0243EAD0534402204619460023FCF70B
S315080049E02DFB1FE0154B5B68C3F38813DC0000251D
S315080049F0690141EAD4616001041B61EB0505A9015F
S31508004A0041EA9461A001001B61EB0501C01841F160
S31508004A1000018B0243EA905384022046194600237C
S31508004A20FCF70CFB054B5B68C3F3014301335B00E2
S31508004A30B0FBF3F038BD034838BD00BF003802406C
S31508004A400024F40000127A00002800F0978070B560
S31508004A500446514B1B6803F00F038B4208D2CBB2B6
S31508004A604D4A1370136803F00F03994240F088808B
S31508004A70236813F0020F17D013F0040F04D0474A27
S31508004A80936843F4E0539360236813F0080F04D047
S31508004A90424A936843F4604393604048836823F02E
S31508004AA0F002A368134383600D46236813F0010FD1
S31508004AB02FD06268012A05D1384B1B6813F4003FD2
S31508004AC00ED15FE0931E012B05D8344B1B6813F0FB
S31508004AD0007F05D158E0314B1B6813F0020F55D003
S31508004AE02E498B6823F0030313438B6000F01EFCEA
S31508004AF0064606E000F01AFC801B41F2883398420D
S31508004B0046D8264B9B6803F00C036268B3EB820F0A
S31508004B10F0D1214B1B6803F00F039D4207D2EAB27E
S31508004B201D4B1A701B6803F00F039D4232D1236890
S31508004B3013F0040F06D019498B6823F4E052E36892
S31508004B4013438B60236813F0080F07D0134A936842
S31508004B5023F46043216943EAC1039360FFF70EFF1C
S31508004B600E4B9B68C3F303130D4AD35CD8400D4B19
S31508004B7018600020FDF7DEFC002070BD012070479C
S31508004B80012070BD012070BD012070BD012070BDDF
S31508004B90032070BD012070BD003C02400038024071
S31508004BA018ED000848000020014B1868704700BF40
S31508004BB04800002008B5FFF7F7FF044B9B68C3F3CE
S31508004BC08223034AD35CD84008BD00BF00380240A0
S31508004BD028ED000808B5FFF7E7FF044B9B68C3F309
S31508004BE04233034AD35CD84008BD00BF00380240B0
S31508004BF028ED00080F2303600B4B9A6802F00302A6
S31508004C0042609A6802F0F00282609A6802F4E05202
S31508004C10C2609B68DB0803F4E0530361034B1B681F
S31508004C2003F00F030B60704700380240003C024057
S31508004C30F0B583B00024CDE00123A3400A6803EA57
S31508004C400205AB4240F0C5804A68022A01D0122A02
S31508004C5010D1E608083650F826C004F00702970077
S31508004C600F22BA402CEA020E0A69BA404EEA02023C
S31508004C7040F82620026867000326BE40F64302EA8B
S31508004C80060E4A6802F00302BA404EEA02020260C1
S31508004C904A6802F1FF3EBEF1010F03D9112A01D07D
S31508004CA0122A10D1826806EA020ECA68BA404EEA8B
S31508004CB002028260426822EA03034A68C2F30012CB
S31508004CC0A2401A434260C3681E408B68BB40334308
S31508004CD0C3604B6813F0805F7BD000230193404B81
S31508004CE05A6C42F480425A645B6C03F48043019325
S31508004CF0019BA608B21C3B4B53F8227004F0030331
S31508004D009B000F229A4027EA0207374A90421DD095
S31508004D1002F5806290421BD002F58062904219D05B
S31508004D2002F58062904217D002F58062904215D053
S31508004D3002F58062904213D002F58062904211D04B
S31508004D4002F5806290420FD107220EE000220CE0A5
S31508004D5001220AE0022208E0032206E0042204E017
S31508004D60052202E0062200E0082202FA03F33B438A
S31508004D7002361C4A42F826301C4B1A68EB4302EAF4
S31508004D8003064F6817F4803F01D045EA0206174A22
S31508004D901660526803EA02064F6817F4003F01D00E
S31508004DA045EA0206114A5660926803EA02064F6807
S31508004DB017F4801F01D045EA02060C4A9660D268AD
S31508004DC013404E6816F4001F01D045EA0203074A4D
S31508004DD0D36001340F2C7FF62FAF03B0F0BD00BFB0
S31508004DE0003802400038014000000240003C014003
S31508004DF00AB1816170470904816170474369594066
S31508004E004161704730B405682C6824F480242C600E
S31508004E10046863608368402B04D103689A6003685A
S31508004E20D96003E0036899600368DA6030BC7047AC
S31508004E300268D3B2103B0B49A1FB03131B090A49AD
S31508004E40C95CC165032B06D922F47F7222F00302DE
S31508004E500432826504E022F47F7222F0030282653E
S31508004E60806D7047ABAAAAAA10ED0008836A82690A
S31508004E7082B9012B08D00BB1022B2ED1C36A13F0CD
S31508004E80807F2CD100207047C36AB3F1C07F28D039
S31508004E9000207047B2F5005F13D1032B03D8DFE873
S31508004EA003F02204220A00207047C36A13F0807FA9
S31508004EB01BD100207047C36AB3F1C07F17D000200A
S31508004EC07047022B15D9032B01D000207047C36AFF
S31508004ED013F0807F0FD10020704700207047012013
S31508004EE07047012070470120704701207047012054
S31508004EF07047012070470120704700BF70B504460F
S31508004F0000F014FA002C5CD00546002384F83430EF
S31508004F10022384F835302268136823F001031360EE
S31508004F200AE000F003FA401B052805D9202363652B
S31508004F30032084F8350070BD23681A6812F0010F43
S31508004F40EFD11A68204810406168A2681143E268E8
S31508004F5011432269114362691143A2691143E26947
S31508004F600A43216A114340EA0102616A042903D10E
S31508004F70E06A216B01430A431A602668756925F0C1
S31508004F800705636A1D43042B0DD1A36A1D43E36A13
S31508004F904BB12046FFF76AFF28B14023636501201D
S31508004FA084F8350070BD75612046FFF741FFE26D54
S31508004FB03F239340836000206065012384F83530E1
S31508004FC070BD012070BD00BF3F8010F038B5856DFB
S31508004FD090F83440012C31D0012480F8344090F800
S31508004FE03540E4B2012C24D10446022084F8350069
S31508004FF0002060652046FFF705FFE26D3F239340DA
S31508005000AB602268136843F016031360226853697D
S3150800501043F080035361236C23B12268136843F07D
S31508005020080313602268136843F001031360002025
S3150800503038BD002380F83430022038BD022038BD40
S3150800504090F83530DBB2022B03D08023436501206C
S315080050507047052380F835300268136823F001038A
S3150800506013600020704700BFF0B583B004460023E4
S315080050700193714B1B68714DA5FB0335AD0A876D0E
S315080050803E68C26D082393401E4210D003681A6812
S3150800509012F0040F0BD01A6822F004021A60C26DCF
S315080050A008239340BB60436D43F001034365E26DFB
S315080050B0012393401E4209D02268526912F0800FDC
S315080050C004D0BB60636D43F002036365E26D04239D
S315080050D093401E4209D02268126812F0020F04D0CB
S315080050E0BB60636D43F004036365E26D1023934070
S315080050F01E4224D02268126812F0080F1FD0BB6027
S3150800510023681A6812F4802F0DD01B6813F4002F39
S3150800511004D1236C9BB12046984710E0A36C73B169
S31508005120204698470BE01A6812F4807F03D11A6864
S3150800513022F008021A60236C0BB120469847E26DEC
S31508005140202393401E4252D02268126812F0100F94
S315080051504DD0BB6094F83530DBB2052B22D12268DE
S31508005160136823F0160313602268536923F080033B
S315080051705361236C0BB9A36C23B12268136823F01F
S3150800518008031360E26D3F239340BB60002384F855
S315080051903430012384F83530236D002B49D020465E
S315080051A0984746E023681A6812F4802F0DD01B68CA
S315080051B013F4002F04D1636CCBB12046984716E050
S315080051C0E36BA3B12046984711E01A6812F4807F72
S315080051D009D11A6822F010021A60002384F83430C4
S315080051E0012384F83530E36B0BB120469847636D8D
S315080051F0FBB1636D13F0010F17D0052384F8353022
S315080052002268136823F001031360019B013301939D
S315080052109D4204D323681B6813F0010FF5D10023C0
S3150800522084F83430012384F83530E36C0BB120461A
S31508005230984703B0F0BD00BF48000020B5814E1B5B
S31508005240074AD36823F4E0631B041B0C000200F42E
S31508005250E060184340F0BF6040F40030D06070470B
S3150800526000ED00E030B4164BDB68C3F30223C3F14C
S315080052700704042C28BF04241D1D062D01D9DD1E94
S3150800528000E00025012303FA04F4013C2140A9406B
S31508005290AB40013B1A400A43002806DA00F00F002B
S315080052A01201D2B2074B1A5407E01201D2B200F12A
S315080052B0604000F5614080F8002330BC704700BFAD
S315080052C000ED00E014ED00E0420900F01F000123A4
S315080052D003FA00F0014B43F82200704700E100E0B2
S315080052E008B50B4B1A6842F400721A601A6842F441
S315080052F080621A601A6842F480721A600320FFF707
S315080053009FFF0020FDF716F9FCF7D2FE002008BD26
S31508005310003C0240034A1368034909780B441360AA
S31508005320704700BFAC6B002044000020014B186892
S31508005330704700BFAC6B002038B50446FFF7F6FF90
S315080053400546B4F1FF3F02D0044B1B781C44FFF717
S31508005350EDFF401B8442FAD838BD00BF4400002048
S315080053600F49D1F8883043F47003C1F888300D4BE3
S315080053701A6842F001021A60002098601A6822F042
S31508005380847222F480321A60074A5A601A6822F434
S3150800539080221A60D8604FF000638B60704700BFA8
S315080053A000ED00E0003802401030002400F1080348
S315080053B043604FF0FF328260C360036100230360DD
S315080053C0704700BF00230361704700BF43684B6006
S315080053D09A688A609A68516099600861036801331F
S315080053E00360704730B40D68B5F1FF3F01D102691B
S315080053F007E000F1080200E01A4653681C68A54257
S31508005400FAD253684B6099608A60516008610368F4
S315080054100133036030BC7047036942688168916054
S315080054208268416851605A68904201D182685A6020
S3150800543000220261186801381860704710B50446E2
S3150800544002F058F8A26BE36B9A4201D1012400E0FE
S31508005450002402F071F8204610BD00BF10B50446BE
S3150800546002F048F8A36B0BB9012400E0002402F00F
S3150800547063F8204610BD00BF70B504461646856B16
S31508005480026C3AB9036843BB406801F0B5F90023DA
S31508005490636029E06EB98068FAF7C0FEA268236CDB
S315080054A01344A3606268934219D32368A36000205B
S315080054B01AE0C068FAF7B2FE236C5B42E2681A4447
S315080054C0E26021688A4202D262681344E360022ECF
S315080054D007D145B1013D002006E0002004E0002088
S315080054E002E0002000E000200135A56370BD00BF82
S315080054F0026C72B110B50346C4681444C4604068AF
S31508005500844201D31868D8600846D968FAF786FE37
S3150800551010BD704738B5054601F0ECFF95F84540D3
S3150800552064B20AE06B6A53B105F1240001F04CF845
S3150800553008B101F0E5F8013C64B2002CF2DCFF2367
